{
  "_format": "hh-sol-artifact-1",
  "contractName": "MultiFeeDistributionFactory",
  "sourceName": "contracts/MultiFeeDistributionFactory.sol",
  "abi": [
    {
      "inputs": [
        {
          "internalType": "address",
          "name": "_ichiFactory",
          "type": "address"
        }
      ],
      "stateMutability": "nonpayable",
      "type": "constructor"
    },
    {
      "anonymous": false,
      "inputs": [
        {
          "indexed": true,
          "internalType": "address",
          "name": "previousOwner",
          "type": "address"
        },
        {
          "indexed": true,
          "internalType": "address",
          "name": "newOwner",
          "type": "address"
        }
      ],
      "name": "OwnershipTransferred",
      "type": "event"
    },
    {
      "anonymous": false,
      "inputs": [
        {
          "indexed": true,
          "internalType": "address",
          "name": "sender",
          "type": "address"
        },
        {
          "indexed": true,
          "internalType": "address",
          "name": "ichiVault",
          "type": "address"
        }
      ],
      "name": "StakerCreated",
      "type": "event"
    },
    {
      "inputs": [],
      "name": "bytecodeHash",
      "outputs": [
        {
          "internalType": "bytes32",
          "name": "",
          "type": "bytes32"
        }
      ],
      "stateMutability": "view",
      "type": "function"
    },
    {
      "inputs": [],
      "name": "cachedDeployData",
      "outputs": [
        {
          "internalType": "bytes",
          "name": "",
          "type": "bytes"
        }
      ],
      "stateMutability": "view",
      "type": "function"
    },
    {
      "inputs": [
        {
          "internalType": "address",
          "name": "ichiVault",
          "type": "address"
        }
      ],
      "name": "deployStaker",
      "outputs": [
        {
          "internalType": "address",
          "name": "staker",
          "type": "address"
        }
      ],
      "stateMutability": "nonpayable",
      "type": "function"
    },
    {
      "inputs": [],
      "name": "ichiFactory",
      "outputs": [
        {
          "internalType": "address",
          "name": "",
          "type": "address"
        }
      ],
      "stateMutability": "view",
      "type": "function"
    },
    {
      "inputs": [],
      "name": "owner",
      "outputs": [
        {
          "internalType": "address",
          "name": "",
          "type": "address"
        }
      ],
      "stateMutability": "view",
      "type": "function"
    },
    {
      "inputs": [],
      "name": "renounceOwnership",
      "outputs": [],
      "stateMutability": "nonpayable",
      "type": "function"
    },
    {
      "inputs": [
        {
          "internalType": "address",
          "name": "newOwner",
          "type": "address"
        }
      ],
      "name": "transferOwnership",
      "outputs": [],
      "stateMutability": "nonpayable",
      "type": "function"
    },
    {
      "inputs": [
        {
          "internalType": "address",
          "name": "",
          "type": "address"
        }
      ],
      "name": "vaultToStaker",
      "outputs": [
        {
          "internalType": "address",
          "name": "",
          "type": "address"
        }
      ],
      "stateMutability": "view",
      "type": "function"
    }
  ],
  "bytecode": "0x60a060405234801561001057600080fd5b50604051612a24380380612a2483398101604081905261002f91610099565b61003833610049565b6001600160a01b03166080526100c9565b600080546001600160a01b038381166001600160a01b0319831681178455604051919092169283917f8be0079c531659141344cd1fd0a4f28419497f9722a3daafe3b4186f6b6457e09190a35050565b6000602082840312156100ab57600080fd5b81516001600160a01b03811681146100c257600080fd5b9392505050565b6080516129396100eb6000396000818161011a015261025c01526129396000f3fe608060405234801561001057600080fd5b50600436106100885760003560e01c80635b15efac1161005b5780635b15efac14610115578063715018a61461013c5780638da5cb5b14610146578063f2fde38b1461015757600080fd5b80630c90eb651461008d5780631e32166b146100ab57806337b44560146100d6578063420c6a2c146100ff575b600080fd5b61009561016a565b6040516100a291906106c7565b60405180910390f35b6100be6100b9366004610731565b6101f8565b6040516001600160a01b0390911681526020016100a2565b6100be6100e4366004610731565b6002602052600090815260409020546001600160a01b031681565b610107610486565b6040519081526020016100a2565b6100be7f000000000000000000000000000000000000000000000000000000000000000081565b6101446104b3565b005b6000546001600160a01b03166100be565b610144610165366004610731565b6104c7565b6001805461017790610755565b80601f01602080910402602001604051908101604052809291908181526020018280546101a390610755565b80156101f05780601f106101c5576101008083540402835291602001916101f0565b820191906000526020600020905b8154815290600101906020018083116101d357829003601f168201915b505050505081565b6001600160a01b038181166000908152600260205260408120549091161561025a5760405162461bcd60e51b815260206004820152601060248201526f1053149150511657d111541313d6515160821b60448201526064015b60405180910390fd5b7f00000000000000000000000000000000000000000000000000000000000000006001600160a01b0316826001600160a01b031663dd81fa636040518163ffffffff1660e01b8152600401602060405180830381865afa1580156102c2573d6000803e3d6000fd5b505050506040513d601f19601f820116820180604052508101906102e69190610790565b6001600160a01b0316146103295760405162461bcd60e51b815260206004820152600a60248201526924a72b20a624a22fab2360b11b6044820152606401610251565b604080516001600160a01b03841660208201526000910160408051601f1981840301815291905280519091506103669060019060208401906105ea565b5080516020820120604051819061037c9061066e565b8190604051809103906000f590508015801561039c573d6000803e3d6000fd5b5092506103ab6001600061067c565b6001600160a01b03808516600090815260026020526040902080549185166001600160a01b03199092168217905563f2fde38b6103f06000546001600160a01b031690565b6040516001600160e01b031960e084901b1681526001600160a01b039091166004820152602401600060405180830381600087803b15801561043157600080fd5b505af1158015610445573d6000803e3d6000fd5b50506040516001600160a01b03861692503391507fca0ca08d677e6066ba2a607057b454a3d31f555febbb6ff46b273ee02704f08090600090a35050919050565b6040516104956020820161066e565b6020820181038252601f19601f820116604052508051906020012081565b6104bb610540565b6104c5600061059a565b565b6104cf610540565b6001600160a01b0381166105345760405162461bcd60e51b815260206004820152602660248201527f4f776e61626c653a206e6577206f776e657220697320746865207a65726f206160448201526564647265737360d01b6064820152608401610251565b61053d8161059a565b50565b6000546001600160a01b031633146104c55760405162461bcd60e51b815260206004820181905260248201527f4f776e61626c653a2063616c6c6572206973206e6f7420746865206f776e65726044820152606401610251565b600080546001600160a01b038381166001600160a01b0319831681178455604051919092169283917f8be0079c531659141344cd1fd0a4f28419497f9722a3daafe3b4186f6b6457e09190a35050565b8280546105f690610755565b90600052602060002090601f016020900481019282610618576000855561065e565b82601f1061063157805160ff191683800117855561065e565b8280016001018555821561065e579182015b8281111561065e578251825591602001919060010190610643565b5061066a9291506106b2565b5090565b61215680620007ae83390190565b50805461068890610755565b6000825580601f10610698575050565b601f01602090049060005260206000209081019061053d91905b5b8082111561066a57600081556001016106b3565b600060208083528351808285015260005b818110156106f4578581018301518582016040015282016106d8565b81811115610706576000604083870101525b50601f01601f1916929092016040019392505050565b6001600160a01b038116811461053d57600080fd5b60006020828403121561074357600080fd5b813561074e8161071c565b9392505050565b600181811c9082168061076957607f821691505b6020821081141561078a57634e487b7160e01b600052602260045260246000fd5b50919050565b6000602082840312156107a257600080fd5b815161074e8161071c56fe60a06040523480156200001157600080fd5b506000805460ff191690556200002733620000f0565b60003390506000816001600160a01b0316630c90eb656040518163ffffffff1660e01b8152600401600060405180830381865afa1580156200006d573d6000803e3d6000fd5b505050506040513d6000823e601f3d908101601f191682016040526200009791908101906200015f565b9050600081806020019051810190620000b191906200023b565b90506001600160a01b038116620000db57604051639fabe1c160e01b815260040160405180910390fd5b6001600160a01b0316608052506200026d9050565b600080546001600160a01b03838116610100818102610100600160a81b0319851617855560405193049190911692909183917f8be0079c531659141344cd1fd0a4f28419497f9722a3daafe3b4186f6b6457e091a35050565b634e487b7160e01b600052604160045260246000fd5b600060208083850312156200017357600080fd5b82516001600160401b03808211156200018b57600080fd5b818501915085601f830112620001a057600080fd5b815181811115620001b557620001b562000149565b604051601f8201601f19908116603f01168101908382118183101715620001e057620001e062000149565b816040528281528886848701011115620001f957600080fd5b600093505b828410156200021d5784840186015181850187015292850192620001fe565b828411156200022f5760008684830101525b98975050505050505050565b6000602082840312156200024e57600080fd5b81516001600160a01b03811681146200026657600080fd5b9392505050565b608051611e9c620002ba600039600081816102c70152818161072e0152818161094501528181610b7601528181610bfd01528181610e430152818161123701526114070152611e9c6000f3fe608060405234801561001057600080fd5b50600436106101a95760003560e01c80638456cb59116100f9578063c891091311610097578063e818ac0d11610071578063e818ac0d14610449578063f2fde38b14610451578063f36c0a7214610464578063fdff9b4d1461046c57600080fd5b8063c8910913146103ce578063d4570c1c146103fd578063dc01f60d1461042857600080fd5b80639c9b2e21116100d35780639c9b2e2114610358578063a765a9571461036b578063bf9befb1146103a8578063c8796572146103b157600080fd5b80638456cb59146103275780638980f11f1461032f5780638da5cb5b1461034257600080fd5b806348e5d9f811610166578063715018a611610140578063715018a6146102ba57806372f702f3146102c25780637acb7757146103015780637bb7bed11461031457600080fd5b806348e5d9f8146102225780635c975abb1461026c5780636eacd3981461028357600080fd5b806310f3ee29146101ae5780632e17de78146101c357806331279d3d146101d6578063367caa09146101ff5780633f4ba83a1461021257806345b35f561461021a575b600080fd5b6101c16101bc3660046119f4565b61048f565b005b6101c16101d1366004611a69565b610561565b6101e96101e4366004611ab4565b61056e565b6040516101f69190611bc7565b60405180910390f35b6101c161020d3660046119f4565b610581565b6101c161064d565b6101e961065f565b610251610230366004611bda565b60036020526000908152604090208054600182015460029092015490919083565b604080519384526020840192909252908201526060016101f6565b60005460ff165b60405190151581526020016101f6565b6102ac610291366004611bda565b6001600160a01b031660009081526004602052604090205490565b6040519081526020016101f6565b6101c16106ca565b6102e97f000000000000000000000000000000000000000000000000000000000000000081565b6040516001600160a01b0390911681526020016101f6565b6101c161030f366004611bf5565b6106dc565b6102e9610322366004611a69565b6106ea565b6101c1610714565b6101c161033d366004611c21565b610724565b60005461010090046001600160a01b03166102e9565b6101c1610366366004611bda565b610826565b6102ac610379366004611c4b565b6001600160a01b0391821660009081526004602090815260408083209390941682526003909201909152205490565b6102ac60015481565b6103b9610940565b604080519283526020830191909152016101f6565b6102516103dc366004611bda565b60046020526000908152604090208054600182015460029092015490919083565b6102ac61040b366004611c4b565b600560209081526000928352604080842090915290825290205481565b61043b610436366004611bda565b6109cf565b6040516101f6929190611c75565b6103b9610b68565b6101c161045f366004611bda565b610cb7565b6101c1610d32565b61027361047a366004611bda565b60066020526000908152604090205460ff1681565b610497610d3a565b8060005b8181101561055b5760008484838181106104b7576104b7611cd5565b90506020020160208101906104cc9190611bda565b6001600160a01b031614156104f457604051639fabe1c160e01b815260040160405180910390fd5b60006006600086868581811061050c5761050c611cd5565b90506020020160208101906105219190611bda565b6001600160a01b031681526020810191909152604001600020805460ff19169115159190911790558061055381611d01565b91505061049b565b50505050565b61056b8133610d9a565b50565b606061057a8383610ee0565b9392505050565b610589610d3a565b8060005b8181101561055b5760008484838181106105a9576105a9611cd5565b90506020020160208101906105be9190611bda565b6001600160a01b031614156105e657604051639fabe1c160e01b815260040160405180910390fd5b6001600660008686858181106105fe576105fe611cd5565b90506020020160208101906106139190611bda565b6001600160a01b031681526020810191909152604001600020805460ff19169115159190911790558061064581611d01565b91505061058d565b610655610d3a565b61065d61111a565b565b60606106c53360028054806020026020016040519081016040528092919081815260200182805480156106bb57602002820191906000526020600020905b81546001600160a01b0316815260019091019060200180831161069d575b5050505050610ee0565b905090565b6106d2610d3a565b61065d600061116c565b6106e682826111c5565b5050565b600281815481106106fa57600080fd5b6000918252602090912001546001600160a01b0316905081565b61071c610d3a565b61065d6112e4565b61072c610d3a565b7f00000000000000000000000000000000000000000000000000000000000000006001600160a01b0316826001600160a01b0316141561077f57604051630aeb29ff60e01b815260040160405180910390fd5b6001600160a01b038216600090815260036020526040902060010154156107b957604051637e2e4d1360e01b815260040160405180910390fd5b6000546107df9061010090046001600160a01b03166001600160a01b0384169083611321565b816001600160a01b03167f8c1256b8896378cd5044f80c202f9772b9d77dc85c8a6eb51967210b09bfaa288260405161081a91815260200190565b60405180910390a25050565b6001600160a01b03811661084d5760405163eeddf6ab60e01b815260040160405180910390fd5b3360009081526006602052604090205460ff1661087d57604051630deda90360e41b815260040160405180910390fd5b60005b6002548110156108ed57816001600160a01b0316600282815481106108a7576108a7611cd5565b6000918252602090912001546001600160a01b031614156108db57604051637e2e4d1360e01b815260040160405180910390fd5b806108e581611d01565b915050610880565b50600280546001810182556000919091527f405787fa12a823e0f2b7631cc41b3ba8828b3321ca811111fa75cd3aa3bb5ace0180546001600160a01b0319166001600160a01b0392909216919091179055565b6000807f00000000000000000000000000000000000000000000000000000000000000006001600160a01b031663c87965726040518163ffffffff1660e01b815260040160408051808303816000875af11580156109a2573d6000803e3d6000fd5b505050506040513d601f19601f820116820180604052508101906109c69190611d1c565b90939092509050565b606080600060028054905067ffffffffffffffff8111156109f2576109f2611a9e565b604051908082528060200260200182016040528015610a1b578160200160208202803683370190505b50905060005b600254811015610afe576e111b0ec57e6499a1f4b1014d3f6d5960321b610a6f8660028481548110610a5557610a55611cd5565b6000918252602090912001546001600160a01b0316611389565b610a799190611d40565b6005600060028481548110610a9057610a90611cd5565b60009182526020808320909101546001600160a01b0390811684528382019490945260409283018220938a16825292909252902054610acf9190611d62565b828281518110610ae157610ae1611cd5565b602090810291909101015280610af681611d01565b915050610a21565b5060028181805480602002602001604051908101604052809291908181526020018280548015610b5757602002820191906000526020600020905b81546001600160a01b03168152600190910190602001808311610b39575b505050505091509250925050915091565b6000806000600154905060007f00000000000000000000000000000000000000000000000000000000000000006001600160a01b03166318160ddd6040518163ffffffff1660e01b8152600401602060405180830381865afa158015610bd2573d6000803e3d6000fd5b505050506040513d601f19601f82011682018060405250810190610bf69190611d7a565b90506000807f00000000000000000000000000000000000000000000000000000000000000006001600160a01b031663c4a7761e6040518163ffffffff1660e01b81526004016040805180830381865afa158015610c58573d6000803e3d6000fd5b505050506040513d601f19601f82011682018060405250810190610c7c9190611d1c565b909250905082610c8c8584611d93565b610c969190611d40565b955082610ca38583611d93565b610cad9190611d40565b9450505050509091565b610cbf610d3a565b6001600160a01b038116610d295760405162461bcd60e51b815260206004820152602660248201527f4f776e61626c653a206e6577206f776e657220697320746865207a65726f206160448201526564647265737360d01b60648201526084015b60405180910390fd5b61056b8161116c565b61065d611405565b6000546001600160a01b0361010090910416331461065d5760405162461bcd60e51b815260206004820181905260248201527f4f776e61626c653a2063616c6c6572206973206e6f7420746865206f776e65726044820152606401610d20565b6001600160a01b03811660009081526004602052604090208054831180610dbf575082155b15610ddd5760405163162908e360e11b815260040160405180910390fd5b610de5611405565b60005b600254811015610e3557610e238360028381548110610e0957610e09611cd5565b6000918252602090912001546001600160a01b03166115a8565b80610e2d81611d01565b915050610de8565b50610e6a6001600160a01b037f0000000000000000000000000000000000000000000000000000000000000000168385611321565b82816000016000828254610e7e9190611db2565b925050819055508260016000828254610e979190611db2565b90915550506040518381526001600160a01b038316907f85082129d87b2fe11527cb1b3b7a520aeb5aa6913f88a3d8757fe40d1db02fdd906020015b60405180910390a2505050565b6060610eea6116cb565b815167ffffffffffffffff811115610f0457610f04611a9e565b604051908082528060200260200182016040528015610f2d578160200160208202803683370190505b50905060005b8251811015611113576000838281518110610f5057610f50611cd5565b60200260200101519050600060036000836001600160a01b03166001600160a01b031681526020019081526020016000209050610f8b611405565b610f9586836115a8565b6001600160a01b038083166000908152600560209081526040808320938a1683529290522054156110fe576001600160a01b038083166000908152600560209081526040808320938a16835292905220548451859085908110610ffa57610ffa611cd5565b6020908102919091018101919091526001600160a01b038084166000818152600584526040808220938b1682529290935291205461103a91908890611321565b6001600160a01b038083166000908152600560209081526040808320938a16835292905290812054825490918391611073908490611db2565b90915550506001600160a01b038281166000818152600560209081526040808320948b16808452948252918290205491519182529192917f540798df468d7b23d11f156fdb954cb19ad414d150722a7b6d55ba369dea792e910160405180910390a36001600160a01b038083166000908152600560209081526040808320938a168352929052908120555b5050808061110b90611d01565b915050610f33565b5092915050565b611122611711565b6000805460ff191690557f5db9ee0a495bf2e6ff9c91a7834c1ba4fdd244a5e8aa4e537bd38aeae4b073aa335b6040516001600160a01b03909116815260200160405180910390a1565b600080546001600160a01b03838116610100818102610100600160a81b0319851617855560405193049190911692909183917f8be0079c531659141344cd1fd0a4f28419497f9722a3daafe3b4186f6b6457e091a35050565b6111cd6116cb565b816111eb5760405163162908e360e11b815260040160405180910390fd5b6111f3611405565b60005b600254811015611229576112178260028381548110610e0957610e09611cd5565b8061122181611d01565b9150506111f6565b5061125f6001600160a01b037f00000000000000000000000000000000000000000000000000000000000000001633308561175a565b6001600160a01b038116600090815260046020526040812080549091849183919061128b908490611d62565b9250508190555082600160008282546112a49190611d62565b90915550506040518381526001600160a01b038316907febedb8b3c678666e7f36970bc8f57abf6d8fa2e828c0da91ea5b75bf68ed101a90602001610ed3565b6112ec6116cb565b6000805460ff191660011790557f62e78cea01bee320cd4e420270b5ea74000d11b0c9f74754ebdbfc544b05a25861114f3390565b6040516001600160a01b03831660248201526044810182905261138490849063a9059cbb60e01b906064015b60408051601f198184030181529190526020810180516001600160e01b03166001600160e01b031990931692909217909152611792565b505050565b6001600160a01b038082166000818152600360208181526040808420815160608101835281548152600182015481850152600290910154818301908152968916855260048352818520805496865293840190925283205494519294909391926113f29190611db2565b6113fc9190611d93565b95945050505050565b7f00000000000000000000000000000000000000000000000000000000000000006001600160a01b03166370bb45b36040518163ffffffff1660e01b8152600401600060405180830381600087803b15801561146057600080fd5b505af1158015611474573d6000803e3d6000fd5b5050505060005b60025481101561056b5760006002828154811061149a5761149a611cd5565b6000918252602090912001546001546001600160a01b03909116915015611595576001600160a01b03811660008181526003602052604080822090516370a0823160e01b81523060048201529092906370a0823190602401602060405180830381865afa15801561150f573d6000803e3d6000fd5b505050506040513d601f19601f820116820180604052508101906115339190611d7a565b82549091506000906115459083611db2565b426001808601919091555490915061156f826e111b0ec57e6499a1f4b1014d3f6d5960321b611d93565b6115799190611d40565b83600201600082825461158c9190611d62565b90915550505090555b50806115a081611d01565b91505061147b565b6001600160a01b038083166000908152600460209081526040808320938516835260038252918290208251606081018452815481526001808301549382019390935260029091015492810192909252820154158015906116085750815415155b1561169f5781546001600160a01b03841660009081526003840160205260409081902054908301516e111b0ec57e6499a1f4b1014d3f6d5960321b929161164e91611db2565b6116589190611d93565b6116629190611d40565b6001600160a01b03808516600090815260056020908152604080832093891683529290529081208054909190611699908490611d62565b90915550505b6040908101516001600160a01b0390931660009081526003830160205220919091554260019091015550565b60005460ff161561065d5760405162461bcd60e51b815260206004820152601060248201526f14185d5cd8589b194e881c185d5cd95960821b6044820152606401610d20565b60005460ff1661065d5760405162461bcd60e51b815260206004820152601460248201527314185d5cd8589b194e881b9bdd081c185d5cd95960621b6044820152606401610d20565b6040516001600160a01b038085166024830152831660448201526064810182905261055b9085906323b872dd60e01b9060840161134d565b60006117e7826040518060400160405280602081526020017f5361666545524332303a206c6f772d6c6576656c2063616c6c206661696c6564815250856001600160a01b03166118679092919063ffffffff16565b90508051600014806118085750808060200190518101906118089190611dc9565b6113845760405162461bcd60e51b815260206004820152602a60248201527f5361666545524332303a204552433230206f7065726174696f6e20646964206e6044820152691bdd081cdd58d8d9595960b21b6064820152608401610d20565b6060611876848460008561187e565b949350505050565b6060824710156118df5760405162461bcd60e51b815260206004820152602660248201527f416464726573733a20696e73756666696369656e742062616c616e636520666f6044820152651c8818d85b1b60d21b6064820152608401610d20565b600080866001600160a01b031685876040516118fb9190611e17565b60006040518083038185875af1925050503d8060008114611938576040519150601f19603f3d011682016040523d82523d6000602084013e61193d565b606091505b509150915061194e87838387611959565b979650505050505050565b606083156119c55782516119be576001600160a01b0385163b6119be5760405162461bcd60e51b815260206004820152601d60248201527f416464726573733a2063616c6c20746f206e6f6e2d636f6e74726163740000006044820152606401610d20565b5081611876565b61187683838151156119da5781518083602001fd5b8060405162461bcd60e51b8152600401610d209190611e33565b60008060208385031215611a0757600080fd5b823567ffffffffffffffff80821115611a1f57600080fd5b818501915085601f830112611a3357600080fd5b813581811115611a4257600080fd5b8660208260051b8501011115611a5757600080fd5b60209290920196919550909350505050565b600060208284031215611a7b57600080fd5b5035919050565b80356001600160a01b0381168114611a9957600080fd5b919050565b634e487b7160e01b600052604160045260246000fd5b60008060408385031215611ac757600080fd5b611ad083611a82565b915060208084013567ffffffffffffffff80821115611aee57600080fd5b818601915086601f830112611b0257600080fd5b813581811115611b1457611b14611a9e565b8060051b604051601f19603f83011681018181108582111715611b3957611b39611a9e565b604052918252848201925083810185019189831115611b5757600080fd5b938501935b82851015611b7c57611b6d85611a82565b84529385019392850192611b5c565b8096505050505050509250929050565b600081518084526020808501945080840160005b83811015611bbc57815187529582019590820190600101611ba0565b509495945050505050565b60208152600061057a6020830184611b8c565b600060208284031215611bec57600080fd5b61057a82611a82565b60008060408385031215611c0857600080fd5b82359150611c1860208401611a82565b90509250929050565b60008060408385031215611c3457600080fd5b611c3d83611a82565b946020939093013593505050565b60008060408385031215611c5e57600080fd5b611c6783611a82565b9150611c1860208401611a82565b604080825283519082018190526000906020906060840190828701845b82811015611cb75781516001600160a01b031684529284019290840190600101611c92565b50505083810382850152611ccb8186611b8c565b9695505050505050565b634e487b7160e01b600052603260045260246000fd5b634e487b7160e01b600052601160045260246000fd5b6000600019821415611d1557611d15611ceb565b5060010190565b60008060408385031215611d2f57600080fd5b505080516020909101519092909150565b600082611d5d57634e487b7160e01b600052601260045260246000fd5b500490565b60008219821115611d7557611d75611ceb565b500190565b600060208284031215611d8c57600080fd5b5051919050565b6000816000190483118215151615611dad57611dad611ceb565b500290565b600082821015611dc457611dc4611ceb565b500390565b600060208284031215611ddb57600080fd5b8151801515811461057a57600080fd5b60005b83811015611e06578181015183820152602001611dee565b8381111561055b5750506000910152565b60008251611e29818460208701611deb565b9190910192915050565b6020815260008251806020840152611e52816040850160208701611deb565b601f01601f1916919091016040019291505056fea2646970667358221220b0ca203c56f4fc659beba13889e6be88a6a5e444f69caea3fcbfe6a048932a2364736f6c634300080c0033a2646970667358221220acf028bdbcbdfa8ea7a479af6f69cd70057a62103b6d95ca219683cda1d6d1e364736f6c634300080c0033",
  "linkReferences": {},
  "deployedLinkReferences": {}
}